:03000000020530C6
:0C053000787FE4F6D8FD75812102057784
:10093C00E4900000F01208D812094F1205BC1209FD
:03094C006B80FEBF
:100006005354433132433541363053320D0A55612C
:0C0016007274205465737420210D0A00E0
:1008D800759850758E40758920758B96758D96D252
:0E08E8008ED2ACD2AF7BFF7A00790602068179
:0300230002003E9A
:0D003E00309802C298309904C299C209326C
:090982002009FDEFD209F59922CC
:1007960090022FEBF0A3EAF0A3E9F090022FE0FB22
:1007A600A3E0FAA3E0F912047C601790022FA3E4F9
:1007B60075F001120495A9F0FA12047CFF12098261
:0307C60080D922B5
:0B068100900001EBF0A3EAF0A3E9F009
:10068C0090002C7401F0A37400F0A37404F090009B
:10069C0001E0F9A3E0FAA3E090022FC9F0A3EAF07D
:1006AC00A3E9F090002CE0F9A3E0FAA3E090023269
:1006BC00C9F0A3EAF0A3E9F07B017A00792F1206C6
:0A06CC00D67B017A00792F02079611
:050928004202A50000E1
:0F094F00759D03E4F5BD75BC807F02FE0208F6BE
:10002600EF4488F5BC00000000E5BC30E4FB53BC9F
:04003600EFAFBD2249
:1008F600EF1FAA0670011E4A60107C137D88ED1D4D
:0A090600AA0470011C4A60E880F4A6
:0109100022C4
:02075D00AE07E5
:10075F00E4FDFCAF06120026EFFB9002A6E02BF0A3
:10076F009002A5E03400F00CECB408E79002A5E08D
:10077F00FEA3E07803CEC313CE13D8F9FDE49002A5
:06078F00A5F0A3F0AF0588
:010795002241
:030003000203B342
:1003B300C0E0C0F0C083C082C0D075D000C000C010
:1003C30001C002C003C004C005C006C0077F2212DB
:1003D30008981208B990025EEFF0D2B224F6607961
:1003E300240870757F281208981208B990025DEFEF
:1003F300F090025FE4F090025DE0FF90025FE0C3E3
:100403009F501A1208B990025FE02460F582E43429
:1004130002F583EFF090025FE004F080D97F2A12A7
:10042300089890025DE0FF12087990025FE4F09073
:10043300025DE0FF90025FE0FEC39F501774602EE1
:10044300F582E43402F583E0FF12087990025FE05D
:1004530004F080DB12095E80007F23120898D00726
:10046300D006D005D004D003D002D001D000D0D024
:09047300D082D083D0F0D0E03239
:1005BC0043BB1012095E7F061208987F551208790A
:1005CC0090000174AAF01208B9900001E06F601C51
:1005DC007450F07F051208981208B9900001E014CD
:1005EC00F0E070EFE4FF12089812095E7F15120814
:1005FC00987F021208799000017464F01208B9EF28
:10060C0064516009900001E014F0E070EFC288C200
:05061C0089D2A8D2AF55
:0106210022B6
:10089800E4F5957596FFC2C3D2B6D2B7D2C4D2C317
:1008A800D2B7C2B6C2C48FA0D2B6D2B7C2C3D2C45E
:0108B800221D
:050874001208797F5518
:10087900E4F5957596FFC2C3D2B6D2B7D2C48FA09C
:0F088900D2B7C2B6C2C4D2B6D2B7C2C3D2C4228B
:1008B9007595FFE4F596C2C3D2B6D2B7D2C4D2B603
:0E08C900C2B7C2C4AFA0D2B6D2B7C2C3D2C4A7
:0108D70022FE
:10084E00AE077F2A1208987F071208747F021208DB
:10085E0074AF06120879AF05120879EE2FFF120851
:06086E00797F16020879F3
:1007FB00AE077F2A1208987F081208747F0312082D
:10080B0074AF06120879AF05120879AF0312087995
:0C081B00EE2D2BFF1208797F16020879E1
:0C095E007F7B7E747D09DDFEDEFADFF693
:01096A00226A
:0E092D004202A300004202A100004102A0000D
:03004B0002062288
:10062200C0E0C0F0C083C082C0D075D00875CDC014
:100632009002A0E07026AFCFEFFEA3E04EF0A3E061
:10064200F07F2B1208987F021208799002A1E0FF36
:100652001208799002A1A3E0FF1208799002A0E0AB
:10066200B40111AFCFA3E0F0A3E04FF075CF5590E6
:0F06720002A0E4F0D0D0D082D083D0F0D0E0321C
:10091100758922438E80438E40758CF5758DFC431D
:070921008F03D2AFD28E223A
:1007C90075D902E4F5D8F5E9F5F975DA4D9002A382
:1007D9007404F0A3E4F09002A3E0FEA3E0F5EAEECE
:1007E900F5FAE02400F09002A3E03404F0D2AFD28D
:0207F900DE22FE
:03003B0002072099
:10072000C0E0C083C082C0D075D008C2D89002A3F8
:10073000E0FEA3E0F5EAEEF5FAE02400F09002A373
:10074000E03404F0B2B49002A07401F0A3E4F0A38A
:0D075000F075CF55D0D0D082D083D0E032EC
:0A097800E4F5CF75CDC075CE5D2209
:0D096B001209111207C912097843AF0222C8
:10053C0002093CE493A3F8E493A34003F68001F290
:10054C0008DFF48029E493A3F85407240CC8C333C0
:10055C00C4540F4420C8834004F456800146F6DF8F
:10056C00E4800B0102040810204080900928E47EEE
:10057C00019360BCA3FF543F30E509541FFEE49384
:10058C00A360010ECF54C025E060A840B8E493A34B
:10059C00FAE493A3F8E493A3C8C582C8CAC583CA76
:1005AC00F0A3C8C582C8CAC583CADFE9DEE780BE2E
:01093B0000BB
:10047C00BB010689828A83E0225002E722BBFE027E
:09048C00E32289828A83E49322B1
:10049500A3F8E0C5F025F0F0E5821582700215831A
:0604A500E0C838F0E82277
:1006D60090022FE0FFA3E0FEA3E0CF900238F0A344
:1006E600EEF0A3EFF0900232E0CBF0A3E0CAF0A365
:1006F600E0C9F07F2290023BAD82AC8312047C8D70
:10070600828C83F0A309E970010ADFEC900232E0E3
:0A071600FBA3E0FAA3E0F90200B330
:10004E00E5102438F582E43402F583E005102290A1
:10005E000235300703900238E475F0011204EA020B
:10006E00047C2000E97F2ED2008018EF540F2490DC
:10007E00D43440D4FF30040BEF24BFB41A00500325
:10008E002461FFE511600215110514E514700205D7
:10009E001330070E900235E475F0011204EAEF02F8
:1000AE0004D80208277403D2078003E4C207F510B0
:1000BE00900235120501E4F511F513F514E5116002
:1000CE00077F2012009180F57512FFC201C200C297
:1000DE0002C203C205C206C20812005DFF700D30D7
:1000EE0007057F001200A2AF14AE1322B4255FC223
:1000FE00D5C20412005DFF24D0B40A00501A75F068
:10010E000A781130D50508B6FF0106C6A426F620DA
:10011E00D5047002D20380D924CFB41A00EF500454
:10012E00C2E5D2040202A3D20180C6D20080C0D2A0
:10013E000280BCD2D580BAD20580B47F2012009145
:10014E002002077401B5110040F112004EFF12009B
:10015E00910200CBD208D206809512004EFB1200FF
:10016E004EFA12004EF94A4B700679747A037BFFF1
:10017E0020022EE511602A7E008E82758300120405
:10018E00AB60060EEE651270F0C2D5EBC0E0EAC0B1
:10019E00E0E9C0E0EE1202EAD0E0F9D0E0FAD0E0F9
:1001AE00FB12047CFF60AAEBC0E0EAC0E0E9C0E00D
:1001BE00120091D0E02401F9D0E03400FAD0E0FB37
:1001CE00E5120460DCD512D980877BFF7A0279E6CE
:1001DE00D202809C791080027908C206C20880087B
:1001EE00D2D5790A8004790AC2D5E512047002F5D7
:1001FE0012E4FAFDFEFF12004EFC7B0820011312E2
:10020E00004EFD7B1030000A12004EFE12004EFF13
:10021E007B20EC3382D592D55013C3E43000069F79
:10022E00FFE49EFEE42001039DFDE49CFCE4CBF87C
:10023E00C201EC700CCFCECDCCE824F8F870F38070
:10024E0017C3EF33FFEE33FEED33FDEC33FCEB3330
:10025E00FB994002FB0FD8E9EB300105F8D0E0C462
:10026E0048B201C0E00AEC4D4E4F78207B0070C2C0
:10027E00EAB5120040BCC0E01202ECD0F0D0E02093
:10028E000104C4C0E0C4B201C0F012007AD0F0D5AF
:10029E00F0EB0200CB12050A01685301E258013956
:1002AE004C01354201E64F01EE4401EE49014E4349
:0802BE0001F45501D84601D8F6
:1002C6004501D847039450013D2D01412E01642B71
:1002D600014523016220037D2A00FD480000015CE0
:1002E6003F3F3F00790AA2D5200314300509B91013
:1002F600020404B9080104A2D52006025001042014
:1003060002689202B511005034C0E07F2030031914
:100316007F30A20272067205500F120343C202C258
:1003260006C205C2087F30800F300503E9C0E0121F
:100336000091300503D0E0F9D0E0B511CC300517B7
:100346007F30B9100C1200917F583004077F7880F7
:1003560003B908031200913002057F2D0200917F38
:10036600202008F87F2B2006F322920280CF286EE9
:10037600756C6C2900D20112004E3001F8C201786A
:100386001130D50108F60200FD2D504349581200E0
:100396004E2403B405004001E490038F93120082BB
:0D03A600743A120082D2037511040201E2C4
:1004AB00BB010CE58229F582E5833AF583E0225006
:1004BB0006E92582F8E622BBFE06E92582F8E22250
:0D04CB00E58229F582E5833AF583E493226A
:1004D800BB010689828A83F0225002F722BBFE0103
:0204E800F322FD
:1004EA00F8E0FBA3A3E0F925F0F0E582158270029B
:0704FA001583E0FA38F0223F
:09050100EBF0A3EAF0A3E9F022FB
:10050A00D083D082F8E4937012740193700DA3A380
:10051A0093F8740193F5828883E473740293686094
:06052A00EFA3A3A380DF94
:10082700EFB40A07740D120832740A309811A899A8
:10083700B8130CC2983098FDA899C298B811F63031
:0708470099FDC299F5992209
:00000001FF
