:0300000002079F55
:0C079F00787FE4F6D8FD7581210207E6A2
:100C6400E4900000F0120C9B120CDD120902120C2D
:0C0C7400F9120D0612070C120C2880F873
:100C47005354433132433541363053320D0A5561DF
:0D0C5700727432205465737420210D0A0060
:10089B004102D6004102D5004102A200603202A300
:1008AB00000000000000000000000000000000003D
:1008BB00000000000000000000000000000000002D
:1008CB00000000000000000000000000000000001D
:0208DB0000001B
:100C9B00759A50759CB9438E1075AF01D2AF7BFF1F
:070CAB007A0C79470209CB26
:090D1D002009FDEFD209F59B222B
:100AE900900230EBF0A3EAF0A3E9F0900230E0FBCA
:100AF900A3E0FAA3E0F91206586017900230A3E4C4
:100B090075F001120671A9F0FA120658FF120D1DAF
:030B190080D9225E
:0B09CB00900002EBF0A3EAF0A3E9F0BB
:1009D60090002D7401F0A37400F0A37405F090004C
:1009E60002E0F9A3E0FAA3E0900230C9F0A3EAF02E
:1009F600A3E9F090002DE0F9A3E0FAA3E09002331A
:100A0600C9F0A3EAF0A3E9F07B017A007930120A73
:0A0A1600207B017A007930020AE922
:030043000203B302
:0D03B300C0E0C0F0C083C082C0D075D0088B
:1003C000E4FF90025EF0E59A20E0030204B7539A3E
:1003D000FEAF9BEFB480099002D67401F00204C115
:1003E0009002D6E0FEB4010EEF640260030204C185
:1003F0007402F00204C1EEB4020E9002A2EFF0907B
:1004000002D67403F00204C19002D6E064036003D4
:100410000204B79002A2E0FED39400400C74A32E15
:10042000F582E43402F583EFF09002A2E014F0E0EC
:1004300060030204B79002D6F07F2A120BC77F0830
:1004400012001B7FAA12001B7F0112001B90025E8C
:10045000740BF090025EE0FFD39405401774A32F55
:10046000F582E43402F583E0FF12001B90025EE0A7
:1004700014F080DF1200067F2A120BC77F081200DB
:100480001B7FAA12001B7F0112001B90025E7405E5
:10049000F090025EE0FFD39400401774A32FF58222
:1004A000E43402F583E0FF12001B90025EE014F0DA
:1004B00080DF7FAA12001BE59A30E105539AFDC246
:0104C0000932
:0B04C100D0D0D082D083D0F0D0E03249
:0C0006007F017E267DD6DDFEDEFADFF6EF
:0100120022CB
:100A6A007468652074656C6570686F6E652069735B
:100A7A00206F66666C696E65200D0A006E6F2074C1
:100A8A00656C6570686F6E65200D0A007468652074
:100A9A0074656C6570686F6E65206973206F6E6C23
:070AAA00696E65200D0A00D2
:0908DD004202E100004102E002C8
:0F0CDD00759D03E4F5BD75BC807F02FE020C809F
:100CC900EF4488F5BC00000000E5BC30E4FB53BCF0
:040CD900EFAFBD229A
:100C8000EF1FAA0670011E4A60107C137D88ED1DBF
:0A0C9000AA0470011C4A60E880F419
:010C9A002237
:020AB100AE078E
:100AB300E4FDFCAF06120CC9EFFB9002E2E02BF061
:100AC3009002E1E03400F00CECB410E79002E1E0B6
:100AD300C4F854F0C8A3E0C4540F48FDE49002E105
:050AE300F0A3F0AF05D7
:010AE80022EB
:10070C00E4900001F0FF120AB1900001EFF0D394D5
:10071C00C840229002E0E06401601A30C1177B01EE
:10072C007D017FA1120B4E9002E07401F07BFF7AE9
:10073C000A796A805A900001E0C3940A5022900210
:10074C00E0E06402601A30C1177B027D017FA112C8
:10075C000B4E9002E07402F07BFF7A0A7986802FB0
:10076C00900001E0FFD394144028EF94285023907C
:10077C0002E0E06403601B30C1187B037D017FA1A4
:10078C00120B4E9002E07403F07BFF7A0A799612FA
:02079C0009CB87
:01079E002238
:030003000204CC28
:1004CC00C0E0C0F0C083C082C0D075D000C000C0F6
:1004DC0001C002C003C004C005C006C0077F2212C1
:1004EC000BC7120C09900260EFF0D2B224F66079BF
:1004FC00240870757F28120BC7120C0990025FEF4D
:10050C00F0900261E4F090025FE0FF900261E0C3C2
:10051C009F501A120C09900261E02462F582E434B7
:10052C0002F583EFF0900261E004F080D97F2A128B
:10053C000BC790025FE0FF12001B900261E4F09089
:10054C00025FE0FF900261E0FEC39F501774622EC1
:10055C00F582E43402F583E0FF12001B900261E0A7
:10056C0004F080DB120CEC80007F23120BC7D00749
:10057C00D006D005D004D003D002D001D000D0D00A
:09058C00D082D083D0F0D0E0321F
:1009020043BB10120CEC7F06120BC77F5512001B63
:1009120090000174AAF0120C09900001E06F601CB3
:100922007450F07F05120BC7120C09900001E014FD
:10093200F0E070EFE4FF120BC7120CEC7F15120B04
:10094200C77F0212001B9000017464F0120C09EFC1
:1009520064516009900001E014F0E070EFC288C2B7
:0509620089D2A8D2AF0C
:01096700226D
:100BC700E4F5957596FFC2C3D2B6D2B7D2C4D2C3E5
:100BD700D2B7C2B6C2C48FA0D2B6D2B7C2C3D2C42C
:010BE70022EB
:0500160012001B7F55E4
:10001B00E4F5957596FFC2C3D2B6D2B7D2C48FA002
:0F002B00D2B7C2B6C2C4D2B6D2B7C2C3D2C422F1
:100C09007595FFE4F596C2C3D2B6D2B7D2C4D2B6AF
:0E0C1900C2B7C2C4AFA0D2B6D2B7C2C3D2C453
:010C270022AA
:100BA100AE077F2A120BC77F071200167F021200C1
:100BB10016AF0612001BAF0512001BEE2FFF12002D
:060BC1001B7F1602001B61
:100B4E00AE077F2A120BC77F081200167F03120012
:100B5E0016AF0612001BAF0512001BAF0312001BCF
:0C0B6E00EE2D2BFF12001B7F1602001B57
:0C0CEC007F7B7E747D09DDFEDEFADFF602
:010CF80022D9
:100BE8005468652072696E6720757020210D0A00AF
:100BF8005468652072696E67206F666620210D0A49
:010C080000EB
:1008E6004202DC00004202D900004102D700420267
:0B08F600DE00004102D8004102DB00E0
:03004B000209683F
:10096800C0E0C0F0C083C082C0D075D00875CDC0CB
:100978009002D7E07028AFCFEFFE9002D9E04EF09A
:10098800A3E0F07F2B120BC77F0212001B9002D945
:10099800E0FF12001B9002D9A3E0FF12001B900297
:1009A800D7E0B40113AFCF9002D9E0F0A3E04FF045
:1009B80075CF559002D7E4F0D0D0D082D083D0F054
:0309C800D0E0324A
:100CB200758922438E80438E40758CF5758DFC4379
:070CC2008F03D2AFD28E2296
:100B1C0075D902E4F5D8F5E9F5F975DA499002DCF6
:100B2C007404F0A3E4F09002DCE0FEA3E0F5EAEE3E
:100B3C00F5FAE02400F09002DCE03404F0D2AFD2FD
:020B4C00DE22A7
:03003B0002082B8D
:10082B00C0E0C083C082C0D075D008C2D89002DCB3
:10083B00E0FEA3E0F5EAEEF5FAE02400F09002DC2E
:10084B00E03404F0B2B49002D77401F09002D9E412
:10085B00F0A3F075CF559002DFE004F07006900224
:10086B00DEE004F0D39002DFE094A09002DEE0948F
:10087B000F40149002D87401F09002DEE4F0A3F064
:10088B00A2C1339002DBF0D0D0D082D083D0E03243
:0A0D1300E4F5CF75CDC075CE5D226A
:0D0CF900120CB2120B1C120D1343AF02229D
:100C28009002D8E0B40117E4F09002DBE07BFF709B
:0F0C3800067A0B79E880047A0B79F81209CB223F
:0D0D0600D28AC28BD2AA75930FE4F5942215
:030013000205954E
:10059500C0E0C0F0C083C082C0D075D000C000C02C
:0D05A50001C002C003C004C005C006C007AD
:1005B200E4FEAF80EF540FFFEE7077EFB4100050FF
:1005C200719005CAF82828730206300205FC02065B
:1005D2000002060402060802060C020610020614B5
:1005E20002061802061C020620020624020628023F
:1005F200063002063002063080307B0180367B02F4
:1006020080327B03802E7B04802A7B0580267B063A
:1006120080227B07801E7B08801A7B0980167B0A5A
:1006220080127B0B800E7B0C800AE4FB8006E4FBCD
:0B0632008002E4FB7D017FA2120B4E52
:10063D00D007D006D005D004D003D002D001D00011
:0B064D00D0D0D082D083D0F0D0E032BB
:1007AB00020C64E493A3F8E493A34003F68001F2F4
:1007BB0008DFF48029E493A3F85407240CC8C3334F
:1007CB00C4540F4420C8834004F456800146F6DF1E
:1007DB00E4800B010204081020408090089BE47E0B
:1007EB00019360BCA3FF543F30E509541FFEE49313
:1007FB00A360010ECF54C025E060A840B8E493A3DA
:10080B00FAE493A3F8E493A3C8C582C8CAC583CA04
:10081B00F0A3C8C582C8CAC583CADFE9DEE780BEBC
:0109010000F5
:10065800BB010689828A83E0225002E722BBFE02A0
:09066800E32289828A83E49322D3
:10067100A3F8E0C5F025F0F0E5821582700215833C
:06068100E0C838F0E82299
:100A2000900230E0FFA3E0FEA3E0CF900239F0A3F4
:100A3000EEF0A3EFF0900233E0CBF0A3E0CAF0A316
:100A4000E0C9F07F2290023CAD82AC831206588D43
:100A5000828C83F0A309E970010ADFEC900233E095
:0A0A6000FBA3E0FAA3E0F90200B3E3
:10004E00E5102439F582E43402F583E005102290A0
:10005E000236300703900239E475F0011206C6022B
:10006E0006582000E97F2ED2008018EF540F2490FE
:10007E00D43440D4FF30040BEF24BFB41A00500325
:10008E002461FFE511600215110514E514700205D7
:10009E001330070E900236E475F0011206C6EF0219
:1000AE0006B4020B7A7403D2078003E4C207F5107C
:1000BE009002361206DDE4F511F513F514E5116024
:1000CE00077F2012009180F57512FFC201C200C297
:1000DE0002C203C205C206C20812005DFF700D30D7
:1000EE0007057F001200A2AF14AE1322B4255FC223
:1000FE00D5C20412005DFF24D0B40A00501A75F068
:10010E000A781130D50508B6FF0106C6A426F620DA
:10011E00D5047002D20380D924CFB41A00EF500454
:10012E00C2E5D2040202A3D20180C6D20080C0D2A0
:10013E000280BCD2D580BAD20580B47F2012009145
:10014E002002077401B5110040F112004EFF12009B
:10015E00910200CBD208D206809512004EFB1200FF
:10016E004EFA12004EF94A4B700679747A037BFFF1
:10017E0020022EE511602A7E008E82758300120603
:10018E008760060EEE651270F0C2D5EBC0E0EAC0D5
:10019E00E0E9C0E0EE1202EAD0E0F9D0E0FAD0E0F9
:1001AE00FB120658FF60AAEBC0E0EAC0E0E9C0E02F
:1001BE00120091D0E02401F9D0E03400FAD0E0FB37
:1001CE00E5120460DCD512D980877BFF7A0279E6CE
:1001DE00D202809C791080027908C206C20880087B
:1001EE00D2D5790A8004790AC2D5E512047002F5D7
:1001FE0012E4FAFDFEFF12004EFC7B0820011312E2
:10020E00004EFD7B1030000A12004EFE12004EFF13
:10021E007B20EC3382D592D55013C3E43000069F79
:10022E00FFE49EFEE42001039DFDE49CFCE4CBF87C
:10023E00C201EC700CCFCECDCCE824F8F870F38070
:10024E0017C3EF33FFEE33FEED33FDEC33FCEB3330
:10025E00FB994002FB0FD8E9EB300105F8D0E0C462
:10026E0048B201C0E00AEC4D4E4F78207B0070C2C0
:10027E00EAB5120040BCC0E01202ECD0F0D0E02093
:10028E000104C4C0E0C4B201C0F012007AD0F0D5AF
:10029E00F0EB0200CB1206E601685301E258013979
:1002AE004C01354201E64F01EE4401EE49014E4349
:0802BE0001F45501D84601D8F6
:1002C6004501D847039450013D2D01412E01642B71
:1002D600014523016220037D2A00FD480000015CE0
:1002E6003F3F3F00790AA2D5200314300509B91013
:1002F600020404B9080104A2D52006025001042014
:1003060002689202B511005034C0E07F2030031914
:100316007F30A20272067205500F120343C202C258
:1003260006C205C2087F30800F300503E9C0E0121F
:100336000091300503D0E0F9D0E0B511CC300517B7
:100346007F30B9100C1200917F583004077F7880F7
:1003560003B908031200913002057F2D0200917F38
:10036600202008F87F2B2006F322920280CF286EE9
:10037600756C6C2900D20112004E3001F8C201786A
:100386001130D50108F60200FD2D504349581200E0
:100396004E2403B405004001E490038F93120082BB
:0D03A600743A120082D2037511040201E2C4
:10068700BB010CE58229F582E5833AF583E0225028
:1006970006E92582F8E622BBFE06E92582F8E22272
:0D06A700E58229F582E5833AF583E493228C
:1006B400BB010689828A83F0225002F722BBFE0125
:0206C400F3221F
:1006C600F8E0FBA3A3E0F925F0F0E58215827002BD
:0706D6001583E0FA38F02261
:0906DD00EBF0A3EAF0A3E9F0221E
:1006E600D083D082F8E4937012740193700DA3A3A3
:1006F60093F8740193F5828883E4737402936860B7
:06070600EFA3A3A380DFB6
:100B7A00EFB40A07740D120B85740A309811A899FC
:100B8A00B8130CC2983098FDA899C298B811F630DB
:070B9A0099FDC299F59922B3
:00000001FF
