:03000000020820D3
:0C082000787FE4F6D8FD7581210208679E
:100D2300E4900000F0120D3C120D7E120A05120D24
:090D33009A120DA71204CC80FBFA
:100CEB005354433132433541363053320D0A55613B
:0D0CFB00727432205465737420210D0A00BC
:1008AC004102D5004102D4004102A100603202A2F3
:1008BC00000000000000000000000000000000002C
:1008CC00000000000000000000000000000000001C
:1008DC00000000000000000000000000000000000C
:0208EC0000000A
:100D3C00759A50759CB9438E1075AF01D2AF7BFF7D
:070D4C007A0C79EB020B2E7B
:090DBE002009FDEFD209F59B228A
:100BCD0090022FEBF0A3EAF0A3E9F090022FE0FBE7
:100BDD00A3E0FAA3E0F912076C601790022FA3E4CB
:100BED0075F001120785A9F0FA12076CFF120DBE00
:030BFD0080D9227A
:0B0B2E00900001EBF0A3EAF0A3E9F057
:100B390090002C7401F0A37400F0A37404F09000E9
:100B490001E0F9A3E0FAA3E090022FC9F0A3EAF0CB
:100B5900A3E9F090002CE0F9A3E0FAA3E0900232B7
:100B6900C9F0A3EAF0A3E9F07B017A00792F120B0F
:0A0B7900837B017A00792F020BCD77
:030043000203B302
:0D03B300C0E0C0F0C083C082C0D075D0088B
:1003C000E4FF90025DF0E59A20E0030204B7539A3F
:1003D000FEAF9BEFB480099002D57401F00204C116
:1003E0009002D5E0FEB4010EEF640260030204C186
:1003F0007402F00204C1EEB4020E9002A1EFF0907C
:1004000002D57403F00204C19002D5E064036003D6
:100410000204B79002A1E0FED39400400C74A22E17
:10042000F582E43402F583EFF09002A1E014F0E0ED
:1004300060030204B79002D5F07F2A120CAB7F084C
:1004400012001B7FAA12001B7F0112001B90025D8D
:10045000740BF090025DE0FFD39405401774A22F57
:10046000F582E43402F583E0FF12001B90025DE0A8
:1004700014F080DF1200067F2A120CAB7F081200F6
:100480001B7FAA12001B7F0112001B90025D7405E6
:10049000F090025DE0FFD39400401774A22FF58224
:1004A000E43402F583E0FF12001B90025DE014F0DB
:1004B00080DF7FAA12001BE59A30E105539AFDC246
:0104C0000932
:0B04C100D0D0D082D083D0F0D0E03249
:0C0006007F017E267DD6DDFEDEFADFF6EF
:0100120022CB
:100ACE007468652074656C6570686F6E65206973F7
:100ADE002052696E67200D0A007468652074656C7B
:100AEE006570686F6E65206973206F66666C696EDF
:100AFE0065200D0A006E6F2074656C6570686F6EF0
:100B0E0065200D0A007468652074656C6570686FE9
:100B1E006E65206973206F6E6C696E65200D0A001C
:1008EE004202DA00004102D7024102DC004102DE80
:1008FE00024102DD004102D6004102D8004102D978
:01090E0000E8
:0F0D7E00759D03E4F5BD75BC807F02FE020D0874
:100D6A00EF4488F5BC00000000E5BC30E4FB53BC4E
:040D7A00EFAFBD22F8
:100D0800EF1FAA0670011E4A60107C137D88ED1D36
:0A0D1800AA0470011C4A60E880F490
:010D220022AE
:05099B00900001EFF0E7
:1009A000E4F9FEFDFC900001E0FF120D6AEFC39434
:1009B0000550047D01800DEDB40109EFD394324060
:1009C000030CE4FDECC3940240089002D87401F0DB
:1009D0008005E49002D8F0EFFB9002DBE02BF09072
:1009E00002DAE03400F00EEEB410BA9002DAE0C49D
:1009F000F854F0C8A3E0C4540F48F9E49002DAF0C8
:040A0000A3F0AF01AF
:010A040022CF
:1004CC00E4FF12099B9002DCE0FED394C84005EFD8
:1004DC009428400BEEC39428500BEF94C840069020
:1004EC0002DD7401F030C15EEFD394C8401090026D
:1004FC00DCE0D394B440079002D77401803CEFC386
:10050C009403501E9002DEE0FE6401600DEE640365
:10051C0060089002D77402F080219002DD7401F023
:10052C008019EFD394144019EF942850149002DCE6
:10053C00E09405400C9002D77403F09002D9E004CB
:10054C00F09002DCEFF020C1069002DD7401F09017
:10055C0002DDE0B401227B047D017FA1120C3290FC
:10056C0002DDE09002D6F030C105E49002DDF07BB4
:10057C00FF7A0A79CE020B2E30C1509002DEE0FFDA
:10058C009002D7E0FBB5070EB40205EF64026006DB
:10059C009002DDE070357D017FA1120C329002D704
:1005AC00E0B401087BFF7A0A79E7801C9002D7E05F
:1005BC00B402087BFF7A0B7903800D9002D7E0B46C
:1005CC0003097BFF7A0B7913120B2E9002D7E09064
:0305DC0002DEF04C
:0105DF0022F9
:030003000205E013
:1005E000C0E0C0F0C083C082C0D075D000C000C0E1
:1005F00001C002C003C004C005C006C0077F2212AC
:100600000CAB120CCC90025FEFF0D2B224F6607902
:10061000240870757F28120CAB120CCC90025EEF90
:10062000F0900260E4F090025EE0FF900260E0C3B0
:100630009F501A120CCC900260E02461F582E434E1
:1006400002F583EFF0900260E004F080D97F2A1277
:100650000CAB90025EE0FF12001B900260E4F09091
:10066000025EE0FF900260E0FEC39F501774612EAF
:10067000F582E43402F583E0FF12001B900260E093
:1006800004F080DB120D8D80007F23120CABD007AD
:10069000D006D005D004D003D002D001D000D0D0F5
:0906A000D082D083D0F0D0E0320A
:100A050043BB10120D8D7F06120CAB7F5512001BD8
:100A150090000174AAF0120CCC900001E06F601CEC
:100A25007450F07F05120CAB120CCC900001E01451
:100A3500F0E070EFE4FF120CAB120D8D7F15120C78
:100A4500AB7F0212001B9000017464F0120CCCEF16
:100A550064516009900001E014F0E070EFC288C2B3
:050A650089D2A8D2AF08
:010A6A002269
:100CAB00E4F5957596FFC2C3D2B6D2B7D2C4D2C300
:100CBB00D2B7C2B6C2C48FA0D2B6D2B7C2C3D2C447
:010CCB002206
:0500160012001B7F55E4
:10001B00E4F5957596FFC2C3D2B6D2B7D2C48FA002
:0F002B00D2B7C2B6C2C4D2B6D2B7C2C3D2C422F1
:100CCC007595FFE4F596C2C3D2B6D2B7D2C4D2B6EC
:0E0CDC00C2B7C2C4AFA0D2B6D2B7C2C3D2C490
:010CEA0022E7
:100C8500AE077F2A120CAB7F071200167F021200F7
:100C950016AF0612001BAF0512001BEE2FFF120048
:060CA5001B7F1602001B7C
:100C3200AE077F2A120CAB7F081200167F03120048
:100C420016AF0612001BAF0512001BAF0312001BEA
:0C0C5200EE2D2BFF12001B7F1602001B72
:0C0D8D007F7B7E747D09DDFEDEFADFF660
:010D99002237
:10090F004202E400004202E100004102DF00420225
:0B091F00E600004102E0004102E3009E
:03004B00020A6B3B
:100A6B00C0E0C0F0C083C082C0D075D00875CDC0C7
:100A7B009002DFE07028AFCFEFFE9002E1E04EF086
:100A8B00A3E0F07F2B120CAB7F0212001B9002E154
:100A9B00E0FF12001B9002E1A3E0FF12001B90028B
:100AAB00DFE0B40113AFCF9002E1E0F0A3E04FF031
:100ABB0075CF559002DFE4F0D0D0D082D083D0F048
:030ACB00D0E03246
:100D5300758922438E80438E40758CF5758DFC43D7
:070D63008F03D2AFD28E22F4
:100C000075D902E4F5D8F5E9F5F975DA499002E409
:100C10007404F0A3E4F09002E4E0FEA3E0F5EAEE51
:100C2000F5FAE02400F09002E4E03404F0D2AFD210
:020C3000DE22C2
:03003B0002092B8C
:10092B00C0E0C083C082C0D075D008C2D89002E4AA
:10093B00E0FEA3E0F5EAEEF5FAE02400F09002E425
:10094B00E03404F0B2B49002DF7401F09002E1E401
:10095B00F0A3F075CF559002E7E004F0700690021B
:10096B00E6E004F0D39002E7E094A09002E6E09476
:10097B000F40149002E07401F09002E6E4F0A3F053
:10098B00A2C1339002E3F0D0D0D082D083D0E0323A
:0A0DB400E4F5CF75CDC075CE5D22C9
:0D0D9A00120D53120C00120DB443AF0222D3
:0D0DA700D28AC28BD2AA75930FE4F5942274
:030013000206A939
:1006A900C0E0C0F0C083C082C0D075D000C000C017
:0D06B90001C002C003C004C005C006C00798
:1006C600E4FEAF80EF540FFFEE7077EFB4100050EA
:1006D600719006DEF8282873020744020710020705
:1006E6001402071802071C02072002072402072823
:1006F60002072C02073002073402073802073C02C1
:10070600074402074402074480307B0180367B029F
:1007160080327B03802E7B04802A7B0580267B0625
:1007260080227B07801E7B08801A7B0980167B0A45
:1007360080127B0B800E7B0C800AE4FB8006E4FBB8
:0B0746008002E4FB7D017FA2120C3258
:10075100D007D006D005D004D003D002D001D000FC
:0B076100D0D0D082D083D0F0D0E032A6
:10082C00020D23E493A3F8E493A34003F68001F2B2
:10083C0008DFF48029E493A3F85407240CC8C333CD
:10084C00C4540F4420C8834004F456800146F6DF9C
:10085C00E4800B01020408102040809008ACE47E78
:10086C00019360BCA3FF543F30E509541FFEE49391
:10087C00A360010ECF54C025E060A840B8E493A358
:10088C00FAE493A3F8E493A3C8C582C8CAC583CA83
:10089C00F0A3C8C582C8CAC583CADFE9DEE780BE3B
:01092A0000CC
:10076C00BB010689828A83E0225002E722BBFE028B
:09077C00E32289828A83E49322BE
:10078500A3F8E0C5F025F0F0E58215827002158327
:06079500E0C838F0E82284
:100B830090022FE0FFA3E0FEA3E0CF900238F0A392
:100B9300EEF0A3EFF0900232E0CBF0A3E0CAF0A3B3
:100BA300E0C9F07F2290023BAD82AC8312076C8DCB
:100BB300828C83F0A309E970010ADFEC900232E032
:0A0BC300FBA3E0FAA3E0F90200B37F
:10004E00E5102438F582E43402F583E005102290A1
:10005E000235300703900238E475F0011207DA0218
:10006E00076C2000E97F2ED2008018EF540F2490E9
:10007E00D43440D4FF30040BEF24BFB41A00500325
:10008E002461FFE511600215110514E514700205D7
:10009E001330070E900235E475F0011207DAEF0205
:1000AE0007C8020C5E7403D2078003E4C207F51082
:1000BE009002351207F1E4F511F513F514E5116010
:1000CE00077F2012009180F57512FFC201C200C297
:1000DE0002C203C205C206C20812005DFF700D30D7
:1000EE0007057F001200A2AF14AE1322B4255FC223
:1000FE00D5C20412005DFF24D0B40A00501A75F068
:10010E000A781130D50508B6FF0106C6A426F620DA
:10011E00D5047002D20380D924CFB41A00EF500454
:10012E00C2E5D2040202A3D20180C6D20080C0D2A0
:10013E000280BCD2D580BAD20580B47F2012009145
:10014E002002077401B5110040F112004EFF12009B
:10015E00910200CBD208D206809512004EFB1200FF
:10016E004EFA12004EF94A4B700679747A037BFFF1
:10017E0020022EE511602A7E008E82758300120702
:10018E009B60060EEE651270F0C2D5EBC0E0EAC0C1
:10019E00E0E9C0E0EE1202EAD0E0F9D0E0FAD0E0F9
:1001AE00FB12076CFF60AAEBC0E0EAC0E0E9C0E01A
:1001BE00120091D0E02401F9D0E03400FAD0E0FB37
:1001CE00E5120460DCD512D980877BFF7A0279E6CE
:1001DE00D202809C791080027908C206C20880087B
:1001EE00D2D5790A8004790AC2D5E512047002F5D7
:1001FE0012E4FAFDFEFF12004EFC7B0820011312E2
:10020E00004EFD7B1030000A12004EFE12004EFF13
:10021E007B20EC3382D592D55013C3E43000069F79
:10022E00FFE49EFEE42001039DFDE49CFCE4CBF87C
:10023E00C201EC700CCFCECDCCE824F8F870F38070
:10024E0017C3EF33FFEE33FEED33FDEC33FCEB3330
:10025E00FB994002FB0FD8E9EB300105F8D0E0C462
:10026E0048B201C0E00AEC4D4E4F78207B0070C2C0
:10027E00EAB5120040BCC0E01202ECD0F0D0E02093
:10028E000104C4C0E0C4B201C0F012007AD0F0D5AF
:10029E00F0EB0200CB1207FA01685301E258013964
:1002AE004C01354201E64F01EE4401EE49014E4349
:0802BE0001F45501D84601D8F6
:1002C6004501D847039450013D2D01412E01642B71
:1002D600014523016220037D2A00FD480000015CE0
:1002E6003F3F3F00790AA2D5200314300509B91013
:1002F600020404B9080104A2D52006025001042014
:1003060002689202B511005034C0E07F2030031914
:100316007F30A20272067205500F120343C202C258
:1003260006C205C2087F30800F300503E9C0E0121F
:100336000091300503D0E0F9D0E0B511CC300517B7
:100346007F30B9100C1200917F583004077F7880F7
:1003560003B908031200913002057F2D0200917F38
:10036600202008F87F2B2006F322920280CF286EE9
:10037600756C6C2900D20112004E3001F8C201786A
:100386001130D50108F60200FD2D504349581200E0
:100396004E2403B405004001E490038F93120082BB
:0D03A600743A120082D2037511040201E2C4
:10079B00BB010CE58229F582E5833AF583E0225013
:1007AB0006E92582F8E622BBFE06E92582F8E2225D
:0D07BB00E58229F582E5833AF583E4932277
:1007C800BB010689828A83F0225002F722BBFE0110
:0207D800F3220A
:1007DA00F8E0FBA3A3E0F925F0F0E58215827002A8
:0707EA001583E0FA38F0224C
:0907F100EBF0A3EAF0A3E9F02209
:1007FA00D083D082F8E4937012740193700DA3A38E
:10080A0093F8740193F5828883E4737402936860A1
:06081A00EFA3A3A380DFA1
:100C5E00EFB40A07740D120C69740A309811A89932
:100C6E00B8130CC2983098FDA899C298B811F630F6
:070C7E0099FDC299F59922CE
:00000001FF
