:03000000020410E7
:0C041000787FE4F6D8FD75815102045796
:1005DD004144432076616C75652069732025642143
:0305ED000D0A00F4
:10000300E4F5221205741205F0E4FF1205C98F22EC
:100013007BFF7A0579DD7526008F2712049C80E922
:100592005354433132433541363053320D0A55619B
:0C05A2007274205465737420210D0A004F
:10057400759850758E40758920758B96758D96D2B9
:0E0584008ED2ACD2AF7BFF7A05799202049C36
:030023000205FFD4
:0D05FF00309802C298309904C299C20932A6
:09060C002009FDEFD209F5992245
:10054F008B388A39893AAB38AA39A93A12038260B3
:10055F0013053AE53A7002053914F9120382FF12B6
:05056F00060C80E222F1
:06049C008B238A24892550
:1004A2007535007536007537268B388A39893A8555
:1004B200353B85363C85373D7B017A007900120455
:0A04C200FA7B017A00790002054F71
:0406150002080000D7
:0F05F000759D03E4F5BD75BC807F02FE0205AE6C
:1005C900EF4488F5BC00000000E5BC30E4FB53BCF7
:0405D900EFAFBD22A1
:1005AE00EF1FAA0670011E4A60107C137D88ED1D98
:0A05BE00AA0470011C4A60E880F4F2
:0105C8002210
:0204CC00AE0779
:1004CE00E4FDFCAF061205C9EF2509F509E4350870
:1004DE00F5080CBC08EDE509AE087803CEC313CEC3
:0B04EE0013D8F9FDE4F508F509AF058F
:0104F90022E0
:10041C00020003E493A3F8E493A34003F68001F2F3
:10042C0008DFF48029E493A3F85407240CC8C333E1
:10043C00C4540F4420C8834004F456800146F6DFB0
:10044C00E4800B0102040810204080900615E47E25
:10045C00019360BCA3FF543F30E509541FFEE493A5
:10046C00A360010ECF54C025E060A840B8E493A36C
:10047C00FAE493A3F8E493A3C8C582C8CAC583CA97
:10048C00F0A3C8C582C8CAC583CADFE9DEE780BE4F
:0106190000E0
:10038200BB010689828A83E0225002E722BBFE0279
:09039200E32289828A83E49322AC
:1004FA00853841853942853A43EBC53BFBEAC53C21
:10050A00FAE9C53DF97F097844120382F60809E938
:0E051A0070010ADFF4AB3BAA3CA93D0200824F
:10002600E54D2441F8E6054D22783E300702784139
:10003600E475F0011203DA0203822000EB7F2ED270
:10004600008018EF540F2490D43440D4FF30040BB2
:10005600EF24BFB41A0050032461FFE54E60021579
:100066004E0551E5517002055030070D783EE47596
:10007600F0011203DAEF0203C80205287403D2075F
:100086008003E4C207F54D8B3E8A3F8940E4F54E76
:10009600F550F551E54E60077F2012006180F57539
:1000A6004FFFC201C200C202C203C205C206C20895
:1000B60012002FFF700D3007057F00120072AF513E
:1000C600AE5022B4255FC2D5C20412002FFF24D041
:1000D600B40A00501A75F00A784E30D50508B6FFF6
:1000E6000106C6A426F620D5047002D20380D924C0
:1000F600CFB41A00EF5004C2E5D204020272D20154
:1001060080C6D20080C0D20280BCD2D580BAD205C9
:1001160080B47F201200612002077401B54E0040B2
:10012600F1120026FF12006102009AD208D2068060
:1001360095120026FB120026FA120026F94A4B7089
:100146000679437A037BFF20022EE54E602A7E0065
:100156008E8275830012039B60060EEE654F70F06B
:10016600C2D5EBC0E0EAC0E0E9C0E0EE1202B9D0C9
:10017600E0F9D0E0FAD0E0FB120382FF60AAEBC000
:10018600E0EAC0E0E9C0E0120061D0E02401F9D065
:10019600E03400FAD0E0FBE54F0460DCD54FD980AF
:1001A600877BFF7A0279B5D202809C79108002792A
:1001B60008C206C2088008D2D5790A8004790AC224
:1001C600D5E54F047002F54FE4FAFDFEFF12002656
:1001D600FC7B08200113120026FD7B1030000A125A
:1001E6000026FE120026FF7B20EC3382D592D550E6
:1001F60013C3E43000069FFFE49EFEE42001039D46
:10020600FDE49CFCE4CBF8C201EC700CCFCECDCC67
:10021600E824F8F870F38017C3EF33FFEE33FEEDF2
:1002260033FDEC33FCEB33FB994002FB0FD8E9EBD3
:10023600300105F8D0E0C448B201C0E00AEC4D4EEA
:100246004F78207B0070C2EAB54F0040BCC0E01278
:1002560002BBD0F0D0E0200104C4C0E0C4B201C0AB
:10026600F012004AD0F0D5F0EB02009A1203EA0130
:10027600375301B15801084C01044201B54F01BD85
:0F0286004401BD49011D4301C35501A74601A70E
:100295004501A747036350010C2D01102E01332B97
:1002A500011423013120034C2A00CC480000012B06
:1002B5003F3F3F00790AA2D5200314300509B91044
:1002C500020404B9080104A2D52006025001042045
:1002D50002689202B54E005034C0E07F2030031909
:1002E5007F30A20272067205500F120312C202C2BB
:1002F50006C205C2087F30800F300503E9C0E01251
:100305000061300503D0E0F9D0E0B54ECC300517DB
:100315007F30B9100C1200617F583004077F788058
:1003250003B908031200613002057F2D0200617FC9
:10033500202008F87F2B2006F322920280CF286E1A
:10034500756C6C2900D2011200263001F8C20178C3
:100355004E30D50108F60200CC2D50434958120005
:10036500262403B405004001E490035E9312005275
:0D037500743A120052D203754E040201B119
:10039B00BB010CE58229F582E5833AF583E0225017
:1003AB0006E92582F8E622BBFE06E92582F8E22261
:0D03BB00E58229F582E5833AF583E493227B
:1003C800BB010689828A83F0225002F722BBFE0114
:0203D800F3220E
:1003DA00FAE6FB0808E6F925F0F618E6CA3AF62224
:1003EA00D083D082F8E4937012740193700DA3A3A2
:1003FA0093F8740193F5828883E4737402936860B6
:06040A00EFA3A3A380DFB5
:10052800EFB40A07740D120533740A309811A899AC
:10053800B8130CC2983098FDA899C298B811F63033
:0705480099FDC299F599220B
:00000001FF
