:03000000020508EE
:0C050800787FE4F6D8FD75812102054FD4
:10085A004144432076616C756520697320256421C3
:03086A000D0A0074
:10073100E4900000F012080D12086D120594E4FF18
:10074100120846900000EFF07BFF7A08795A90007A
:0B07510004E4F0A3EFF01205FA80E3CF
:100006005354433132433541363053320D0A55612C
:0C0016007274205465737420210D0A00E0
:10080D00759850758E40758920758B96758D96D21D
:0E081D008ED2ACD2AF7BFF7A0079060205FACC
:0300230002087C54
:0D087C00309802C298309904C299C2093226
:090896002009FDEFD209F59922B9
:1006D20090022FEBF0A3EAF0A3E9F090022FE0FBE7
:1006E200A3E0FAA3E0F9120454601790022FA3E4E6
:1006F20075F00112046DA9F0FA120454FF12089663
:0307020080D92279
:0B05FA00900001EBF0A3EAF0A3E9F091
:1006050090002C7401F0A37400F0A37404F0900022
:1006150001E0F9A3E0FAA3E090022FC9F0A3EAF004
:10062500A3E9F090002CE0F9A3E0FAA3E0900232F0
:10063500C9F0A3EAF0A3E9F07B017A00792F12064D
:0A0645004F7B017A00792F0206D2E4
:05089F004202A0000070
:0F086D00759D03E4F5BD75BC807F02FE02082B6C
:10084600EF4488F5BC00000000E5BC30E4FB53BC77
:04085600EFAFBD2221
:10082B00EF1FAA0670011E4A60107C137D88ED1D18
:0A083B00AA0470011C4A60E880F472
:010845002290
:02069900AE07AA
:10069B00E4FDFCAF06120846EFFB9002A1E02BF045
:1006AB009002A0E03400F00CECB408E79002A0E05C
:1006BB00FEA3E07803CEC313CE13D8F9FDE490026A
:0606CB00A0F0A3F0AF0552
:0106D1002206
:0300030002038B6A
:10038B00C0E0C0F0C083C082C0D075D000C000C038
:10039B0001C002C003C004C005C006C0077F221203
:1003AB0007CD1207EE90025EEFF0D2B224F6607921
:1003BB00240870757F281207CD1207EE90025DEFAF
:1003CB00F090025FE4F090025DE0FF90025FE0C30B
:1003DB009F501A1207EE90025FE02460F582E4341E
:1003EB0002F583EFF090025FE004F080D97F2A12D0
:1003FB0007CD90025DE0FF1207AE90025FE4F09034
:10040B00025DE0FF90025FE0FEC39F501774602E09
:10041B00F582E43402F583E0FF1207AE90025FE051
:10042B0004F080DB12088980007F231207CDD007F0
:10043B00D006D005D004D003D002D001D000D0D04C
:09044B00D082D083D0F0D0E03261
:1005940043BB101208897F061207CD7F551207AEA0
:1005A40090000174AAF01207EE900001E06F601C45
:1005B4007450F07F051207CD1207EE900001E0148D
:1005C400F0E070EFE4FF1207CD1208897F151207DF
:1005D400CD7F021207AE9000017464F01207EEEFB3
:1005E40064516009900001E014F0E070EFC288C229
:0505F40089D2A8D2AF7E
:0105F90022DF
:1007CD00E4F5957596FFC2C3D2B6D2B7D2C4D2C3E3
:1007DD00D2B7C2B6C2C48FA0D2B6D2B7C2C3D2C42A
:0107ED0022E9
:0507A9001207AE7F55B0
:1007AE00E4F5957596FFC2C3D2B6D2B7D2C48FA068
:0F07BE00D2B7C2B6C2C4D2B6D2B7C2C3D2C42257
:1007EE007595FFE4F596C2C3D2B6D2B7D2C4D2B6CF
:0E07FE00C2B7C2C4AFA0D2B6D2B7C2C3D2C473
:01080C0022C9
:10078300AE077F2A1207CD7F071207A97F02120740
:10079300A9AF061207AEAF051207AEEE2FFF120781
:0607A300AE7F160207AE56
:10070500AE077F2A1207CD7F081207A97F031207BC
:10071500A9AF061207AEAF051207AEAF031207AEBB
:0C072500EE2D2BFF1207AE7F160207AE70
:0C0889007F7B7E747D09DDFEDEFADFF669
:010895002240
:10051400020731E493A3F8E493A34003F68001F2C5
:1005240008DFF48029E493A3F85407240CC8C333E8
:10053400C4540F4420C8834004F456800146F6DFB7
:10054400E4800B010204081020408090089FE47EA0
:10055400019360BCA3FF543F30E509541FFEE493AC
:10056400A360010ECF54C025E060A840B8E493A373
:10057400FAE493A3F8E493A3C8C582C8CAC583CA9E
:10058400F0A3C8C582C8CAC583CADFE9DEE780BE56
:0108A4000053
:10045400BB010689828A83E0225002E722BBFE02A6
:09046400E32289828A83E49322D9
:10046D00A3F8E0C5F025F0F0E58215827002158342
:06047D00E0C838F0E8229F
:10064F0090022FE0FFA3E0FEA3E0CF900238F0A3CB
:10065F00EEF0A3EFF0900232E0CBF0A3E0CAF0A3EC
:10066F00E0C9F07F2290023BAD82AC831204548D1F
:10067F00828C83F0A309E970010ADFEC900232E06B
:0A068F00FBA3E0FAA3E0F902008BE0
:10002600E5082438F582E43402F583E005082290D9
:100036000235300703900238E475F0011204C2025B
:1000460004542000E97F2ED2008018EF540F24902C
:10005600D43440D4FF30040BEF24BFB41A0050034D
:100066002461FFE50960021509050CE50C7002051F
:100076000B30070E900235E475F0011204C2EF0250
:1000860004B002075C7403D2078003E4C207F508D4
:100096009002351204D9E4F509F50BF50CE5096073
:1000A600077F2012006980F5750AFFC201C200C2EF
:1000B60002C203C205C206C208120035FF700D3027
:1000C60007057F0012007AAF0CAE0B22B4255FC283
:1000D600D5C204120035FF24D0B40A00501A75F0B8
:1000E6000A780930D50508B6FF0106C6A426F6200B
:1000F600D5047002D20380D924CFB41A00EF50047D
:10010600C2E5D20402027BD20180C6D20080C0D2F0
:100116000280BCD2D580BAD20580B47F2012006995
:100126002002077401B5090040F1120026FF1200F3
:10013600690200A3D208D2068095120026FB12009F
:1001460026FA120026F94A4B7006794C7A037BFF91
:1001560020022EE509602A7E008E82758300120435
:100166008360060EEE650A70F0C2D5EBC0E0EAC009
:10017600E0E9C0E0EE1202C2D0E0F9D0E0FAD0E049
:10018600FB120454FF60AAEBC0E0EAC0E0E9C0E05D
:10019600120069D0E02401F9D0E03400FAD0E0FB87
:1001A600E50A0460DCD50AD980877BFF7A0279BE2E
:1001B600D202809C791080027908C206C2088008A3
:1001C600D2D5790A8004790AC2D5E50A047002F507
:1001D6000AE4FAFDFEFF120026FC7B08200113123A
:1001E6000026FD7B1030000A120026FE120026FFB4
:1001F6007B20EC3382D592D55013C3E43000069FA2
:10020600FFE49EFEE42001039DFDE49CFCE4CBF8A4
:10021600C201EC700CCFCECDCCE824F8F870F38098
:1002260017C3EF33FFEE33FEED33FDEC33FCEB3358
:10023600FB994002FB0FD8E9EB300105F8D0E0C48A
:1002460048B201C0E00AEC4D4E4F78207B0070C2E8
:10025600EAB50A0040BCC0E01202C4D0F0D0E020EB
:100266000104C4C0E0C4B201C0F0120052D0F0D5FF
:10027600F0EB0200A31204E201405301BA58011147
:100286004C010D4201BE4F01C64401C64901264339
:0802960001CC5501B04601B096
:10029E004501B047036C5001152D01192E013C2B61
:1002AE00011D23013A2003552A00D54800000134D0
:1002BE003F3F3F00790AA2D5200314300509B9103B
:1002CE00020404B9080104A2D5200602500104203C
:1002DE0002689202B509005034C0E07F2030031945
:1002EE007F30A20272067205500F12031BC202C2A9
:1002FE0006C205C2087F30800F300503E9C0E01248
:10030E000069300503D0E0F9D0E0B509CC3005170F
:10031E007F30B9100C1200697F583004077F788047
:10032E0003B908031200693002057F2D0200697FB0
:10033E00202008F87F2B2006F322920280CF286E11
:10034E00756C6C2900D2011200263001F8C20178BA
:10035E000930D50108F60200D52D50434958120038
:10036E00262403B405004001E49003679312005A5B
:0D037E00743A12005AD2037509040201BA44
:10048300BB010CE58229F582E5833AF583E022502E
:1004930006E92582F8E622BBFE06E92582F8E22278
:0D04A300E58229F582E5833AF583E4932292
:1004B000BB010689828A83F0225002F722BBFE012B
:0204C000F32225
:1004C200F8E0FBA3A3E0F925F0F0E58215827002C3
:0704D2001583E0FA38F02267
:0904D900EBF0A3EAF0A3E9F02224
:1004E200D083D082F8E4937012740193700DA3A3A9
:1004F20093F8740193F5828883E4737402936860BD
:06050200EFA3A3A380DFBC
:10075C00EFB40A07740D120767740A309811A89940
:10076C00B8130CC2983098FDA899C298B811F630FD
:07077C0099FDC299F59922D5
:00000001FF
