:0300000002089C57
:0C089C00787FE4F6D8FD7581210208E3A6
:100D7D00E4900000F0120D96120DE2120A77120E99
:090D8D000B120E181203B380FBD7
:100D45005354433132433541363053320D0A5561E0
:0D0D5500727432205465737420210D0A0061
:100928004102D5004102D4004102A100603202A276
:1009380000000000000000000000000000000000AF
:10094800000000000000000000000000000000009F
:10095800000000000000000000000000000000008F
:0209680000008D
:100D9600759A50759CB9438E1075AF01D2AF7BFF23
:070DA6007A0D7945020B3DB7
:090E2F002009FDEFD209F59B2218
:100C190090022FEBF0A3EAF0A3E9F090022FE0FB9A
:100C2900A3E0FAA3E0F912073B601790022FA3E4AF
:100C390075F001120754A9F0FA12073BFF120E2FA3
:030C490080D9222D
:0B0B3D00900001EBF0A3EAF0A3E9F048
:100B480090002C7401F0A37400F0A37404F09000DA
:100B580001E0F9A3E0FAA3E090022FC9F0A3EAF0BC
:100B6800A3E9F090002CE0F9A3E0FAA3E0900232A8
:100B7800C9F0A3EAF0A3E9F07B017A00792F120B00
:0A0B8800927B017A00792F020C190C
:030043000205595A
:0D055900C0E0C0F0C083C082C0D075D008E3
:10056600E4FF90025DF0E59A20E00302065D539AEF
:10057600FEAF9BEFB480099002D57401F0020667C6
:100586009002D5E0FEB4010EEF6402600302066736
:100596007402F0020667EEB4020E9002A1EFF0902C
:1005A60002D57403F00206679002D5E06403600387
:1005B60002065D9002A1E0FED39400400C74A22EC8
:1005C600F582E43402F583EFF09002A1E014F0E046
:1005D600600302065D9002D5F07F2A120D057F08A2
:1005E60012001B7FAA12001B7F0112001B90025DE6
:1005F600740BF090025DE0FFD39405401774A22FB0
:10060600F582E43402F583E0FF12001B90025DE000
:1006160014F080DF120DF17F2A120D057F081200FB
:100626001B7FAA12001B7F0112001B90025D74053E
:10063600F090025DE0FFD39400401774A22FF5827C
:10064600E43402F583E0FF12001B90025DE014F033
:1006560080DF7FAA12001BE59A30E105539AFDC29E
:01066600098A
:0B066700D0D0D082D083D0F0D0E032A1
:0C0DF1007F017E267DD6DDFEDEFADFF6F7
:010DFD0022D3
:100ADD007468652074656C6570686F6E65206973E8
:100AED002052696E67200D0A007468652074656C6C
:100AFD006570686F6E65206973206F66666C696ED0
:100B0D0065200D0A006E6F2074656C6570686F6EE0
:100B1D0065200D0A007468652074656C6570686FDA
:100B2D006E65206973206F6E6C696E65200D0A000D
:10096A004202DB00004102D7024102DE004102E0FE
:10097A00024102DF004102D6004102D8004102D9F9
:09098A00004102DA004102DD0027
:0F0DE200759D03E4F5BD75BC807F02FE020D62B6
:100DAD00EF4488F5BC00000000E5BC30E4FB53BC0B
:040DBD00EFAFBD22B5
:100D6200EF1FAA0670011E4A60107C137D88ED1DDC
:0A0D7200AA0470011C4A60E880F436
:010D7C002254
:0509A600900001EFF0DC
:1009AB00E4F9FEFDFC900001E0FF120DADEFC394E6
:1009BB000550047D01800DEDB40109EFD394324055
:1009CB00030CE4FDECC3940240089002D87401F0D0
:1009DB008005E49002D8F0EFFB9002DCE02BF09066
:1009EB0002DBE03400F00EEEB410BA9002DBE0C490
:1009FB00F854F0C8A3E0C4540F48F9E49002DBF0BC
:040A0B00A3F0AF01A4
:010A0F0022C4
:1003B300E4FF1209A69002DEE0FED394C84005EFE5
:1003C3009428400BEEC394285010EF94C8400B9030
:1003D30002DF7401F0E49002DAF030C168EFD394E5
:1003E300C840109002DEE0D394B440079002D77463
:1003F300018046EFC394035023E49002DAF09002A5
:10040300E0E0FE6401600DEE640360089002D774BF
:1004130002F080269002DF7401F0801EEFD3941463
:10042300401EEF942850199002DEE094054011908D
:1004330002D77403F0E49002DAF09002D9E004F0FA
:100443009002DEEFF0E420C10B9002DAF09002DFBD
:1004530004F080089002DFF09002D6F09002DFE013
:10046300FFB401229002D6E06F60127BFF7A0A7913
:10047300DD120B3D7B047D017FA1120C4C9002DF4A
:10048300E09002D6F02220C1030205509002E0E082
:10049300FF9002D7E0FEB50710B40205EF640260D7
:1004A300089002DDE0640170579002DAE0D3940A09
:1004B300400B9002DDE0B401047B0580059002D778
:1004C300E0FB7D017FA1120C4C9002DDE0B4010240
:1004D300E4F09002D7E0B401087BFF7A0A79F68052
:1004E3001C9002D7E0B402087BFF7A0B7912800DCF
:1004F3009002D7E0B403097BFF7A0B7922120B3DFC
:100503009002D7E0640170459002E0E06401703D21
:100513009002DFE0FF7036EF70339002DAE0FFD332
:1005230094145029EF940A4009E49002E4F07B0507
:1005330080059002D7E0FB7D017FA1120C4C7BFF6D
:100543007A0A79F6120B3D9002DAE004F09002D7B2
:05055300E09002E0F061
:010558002280
:0300030002067280
:10067200C0E0C0F0C083C082C0D075D000C000C04E
:1006820001C002C003C004C005C006C0077F221219
:100692000D05120D2690025FEFF0D2B224F66079BA
:1006A200240870757F28120D05120D2690025EEF48
:1006B200F0900260E4F090025EE0FF900260E0C31E
:1006C2009F501A120D26900260E02461F582E434F4
:1006D20002F583EFF0900260E004F080D990025EB0
:1006E200E0B4070D900264E0B409069002DD7401E3
:1006F200F090025EE0B4081C900264E0B410159021
:100702000266E0FF70049002E4F0EFB4010690028A
:10071200E47401F0120DFE80007F23120D05D00754
:10072200D006D005D004D003D002D001D000D0D062
:09073200D082D083D0F0D0E03277
:100A770043BB10120DFE7F06120D057F5512001B9A
:100A870090000174AAF0120D26900001E06F601C1F
:100A97007450F07F05120D05120D26900001E01429
:100AA700F0E070EFE4FF120D05120DFE7F15120D39
:100AB700057F0212001B9000017464F0120D26EFEF
:100AC70064516009900001E014F0E070EFC288C241
:050AD70089D2A8D2AF96
:010ADC0022F7
:100D0500E4F5957596FFC2C3D2B6D2B7D2C4D2C3A5
:100D1500D2B7C2B6C2C48FA0D2B6D2B7C2C3D2C4EC
:010D250022AB
:0500160012001B7F55E4
:10001B00E4F5957596FFC2C3D2B6D2B7D2C48FA002
:0F002B00D2B7C2B6C2C4D2B6D2B7C2C3D2C422F1
:100D26007595FFE4F596C2C3D2B6D2B7D2C4D2B691
:0E0D3600C2B7C2C4AFA0D2B6D2B7C2C3D2C435
:010D4400228C
:100CB100AE079002E4E070247F2A120D057F07122F
:100CC10000167F02120016AF0612001BAF051200BC
:0D0CD1001BEE2FFF12001B7F1612001B22CE
:100C4C00AE079002E4E0702A7F2A120D057F08128D
:100C5C0000167F03120016AF0612001BAF05120020
:100C6C001BAF0312001BEE2D2BFF12001B7F161265
:030C7C00001B2238
:0C0DFE007F7B7E747D09DDFEDEFADFF6EF
:010E0A0022C5
:100993004202E500004202E200004102E10041029E
:0209A300E4006E
:03004B00020A1096
:100A1000C0E0C0F0C083C082C0D075D00875CDC022
:100A20009002E1E0FD700BAFCFEFFEA3E04EF0A32C
:100A3000E0F0ED64017035AFCF9002E2E0F0A3E0AA
:100A40004FF075CF559002E1E4F09002E4E0B4017C
:100A50001B7F2B120D057F0212001B9002E2E0FFAC
:100A600012001B9002E2A3E0FF12001BD0D0D08244
:070A7000D083D0F0D0E0328A
:100DC100438920438E40758DFC438F02D2AFD28E72
:010DD10022FF
:100C7F0075D902E4F5D8F5E9F5F975DA499002E589
:100C8F007404F0A3E4F09002E5E0FEA3E0F5EAEED1
:100C9F00F5FAE02400F09002E5E03404F0D2AFD290
:020CAF00DE2243
:03003B00020BDCD9
:100BDC00C0E0C083C082C0D075D008C2D89002E5F6
:100BEC00E0FEA3E0F5EAEEF5FAE02400F09002E571
:100BFC00E03404F0B2B49002E17401F0A3E4F0A389
:0D0C0C00F075CF55D0D0D082D083D0E0322B
:0A0E2500E4F5CF75CDC075CE5D2257
:0D0E0B00120DC1120C7F120E2543AF022202
:0D0E1800D28AC28BD2AA75930FE4F5942202
:030013000207EFF2
:1007EF00C0E0C0F0C083C082C0D075D000C000C0D0
:0D07FF0001C002C003C004C005C006C00751
:10080C00E4FEAF80EF540FFF9002E4E4F07060EF71
:10081C0014B40A00505990083075F003A4C5832510
:10082C00F0C5837302084E02085202085602085A99
:10083C0002085E02086202086602086A02086E027A
:10084C0008727B3180227B32801E7B33801A7B3492
:10085C0080167B3580127B36800E7B37800A7B3886
:10086C0080067B3980027B307D017FA2120C4C907C
:05087C0002E47401F02C
:10088100D007D006D005D004D003D002D001D000CB
:0B089100D0D0D082D083D0F0D0E03275
:100DD200438901758C3C758AB0D2AFD2A9D28C22DC
:03000B00020E38AA
:090E3800C28D758C3C758AB03244
:1008A800020D7DE493A3F8E493A34003F68001F2DC
:1008B80008DFF48029E493A3F85407240CC8C33351
:1008C800C4540F4420C8834004F456800146F6DF20
:1008D800E4800B0102040810204080900928E47E7F
:1008E800019360BCA3FF543F30E509541FFEE49315
:1008F800A360010ECF54C025E060A840B8E493A3DC
:10090800FAE493A3F8E493A3C8C582C8CAC583CA06
:10091800F0A3C8C582C8CAC583CADFE9DEE780BEBE
:0109A5000051
:10073B00BB010689828A83E0225002E722BBFE02BC
:09074B00E32289828A83E49322EF
:10075400A3F8E0C5F025F0F0E58215827002158358
:06076400E0C838F0E822B5
:100B920090022FE0FFA3E0FEA3E0CF900238F0A383
:100BA200EEF0A3EFF0900232E0CBF0A3E0CAF0A3A4
:100BB200E0C9F07F2290023BAD82AC8312073B8DED
:100BC200828C83F0A309E970010ADFEC900232E023
:0A0BD200FBA3E0FAA3E0F90200B370
:10004E00E5102438F582E43402F583E005102290A1
:10005E000235300703900238E475F0011207A90249
:10006E00073B2000E97F2ED2008018EF540F24901A
:10007E00D43440D4FF30040BEF24BFB41A00500325
:10008E002461FFE511600215110514E514700205D7
:10009E001330070E900235E475F0011207A9EF0236
:1000AE000797020CDE7403D2078003E4C207F51033
:1000BE009002351207C0E4F511F513F514E5116041
:1000CE00077F2012009180F57512FFC201C200C297
:1000DE0002C203C205C206C20812005DFF700D30D7
:1000EE0007057F001200A2AF14AE1322B4255FC223
:1000FE00D5C20412005DFF24D0B40A00501A75F068
:10010E000A781130D50508B6FF0106C6A426F620DA
:10011E00D5047002D20380D924CFB41A00EF500454
:10012E00C2E5D2040202A3D20180C6D20080C0D2A0
:10013E000280BCD2D580BAD20580B47F2012009145
:10014E002002077401B5110040F112004EFF12009B
:10015E00910200CBD208D206809512004EFB1200FF
:10016E004EFA12004EF94A4B700679747A037BFFF1
:10017E0020022EE511602A7E008E82758300120702
:10018E006A60060EEE651270F0C2D5EBC0E0EAC0F2
:10019E00E0E9C0E0EE1202EAD0E0F9D0E0FAD0E0F9
:1001AE00FB12073BFF60AAEBC0E0EAC0E0E9C0E04B
:1001BE00120091D0E02401F9D0E03400FAD0E0FB37
:1001CE00E5120460DCD512D980877BFF7A0279E6CE
:1001DE00D202809C791080027908C206C20880087B
:1001EE00D2D5790A8004790AC2D5E512047002F5D7
:1001FE0012E4FAFDFEFF12004EFC7B0820011312E2
:10020E00004EFD7B1030000A12004EFE12004EFF13
:10021E007B20EC3382D592D55013C3E43000069F79
:10022E00FFE49EFEE42001039DFDE49CFCE4CBF87C
:10023E00C201EC700CCFCECDCCE824F8F870F38070
:10024E0017C3EF33FFEE33FEED33FDEC33FCEB3330
:10025E00FB994002FB0FD8E9EB300105F8D0E0C462
:10026E0048B201C0E00AEC4D4E4F78207B0070C2C0
:10027E00EAB5120040BCC0E01202ECD0F0D0E02093
:10028E000104C4C0E0C4B201C0F012007AD0F0D5AF
:10029E00F0EB0200CB1207C901685301E258013995
:1002AE004C01354201E64F01EE4401EE49014E4349
:0802BE0001F45501D84601D8F6
:1002C6004501D847039450013D2D01412E01642B71
:1002D600014523016220037D2A00FD480000015CE0
:1002E6003F3F3F00790AA2D5200314300509B91013
:1002F600020404B9080104A2D52006025001042014
:1003060002689202B511005034C0E07F2030031914
:100316007F30A20272067205500F120343C202C258
:1003260006C205C2087F30800F300503E9C0E0121F
:100336000091300503D0E0F9D0E0B511CC300517B7
:100346007F30B9100C1200917F583004077F7880F7
:1003560003B908031200913002057F2D0200917F38
:10036600202008F87F2B2006F322920280CF286EE9
:10037600756C6C2900D20112004E3001F8C201786A
:100386001130D50108F60200FD2D504349581200E0
:100396004E2403B405004001E490038F93120082BB
:0D03A600743A120082D2037511040201E2C4
:10076A00BB010CE58229F582E5833AF583E0225044
:10077A0006E92582F8E622BBFE06E92582F8E2228E
:0D078A00E58229F582E5833AF583E49322A8
:10079700BB010689828A83F0225002F722BBFE0141
:0207A700F3223B
:1007A900F8E0FBA3A3E0F925F0F0E58215827002D9
:0707B9001583E0FA38F0227D
:0907C000EBF0A3EAF0A3E9F0223A
:1007C900D083D082F8E4937012740193700DA3A3BF
:1007D90093F8740193F5828883E4737402936860D3
:0607E900EFA3A3A380DFD3
:100CDE00EFB40A07740D120CE9740A309811A89932
:100CEE00B8130CC2983098FDA899C298B811F63076
:070CFE0099FDC299F599224E
:00000001FF
