:030000000208767D
:0C087600787FE4F6D8FD7581210208BDF2
:100D2B00E4900000F0120D44120D861209EF120D23
:090D3B00A2120DAF1203B380FBFC
:100CF3005354433132433541363053320D0A556133
:0D0D0300727432205465737420210D0A00B3
:100902004102D5004102D4004102A100603202A29C
:1009120000000000000000000000000000000000D5
:1009220000000000000000000000000000000000C5
:1009320000000000000000000000000000000000B5
:020942000000B3
:100D4400759A50759CB9438E1075AF01D2AF7BFF75
:070D54007A0C79F3020AB5E5
:090DC6002009FDEFD209F59B2282
:100BD50090022FEBF0A3EAF0A3E9F090022FE0FBDF
:100BE500A3E0FAA3E0F91207C2601790022FA3E46D
:100BF50075F0011207DBA9F0FA1207C2FF120DC644
:030C050080D92271
:0B0AB500900001EBF0A3EAF0A3E9F0D1
:100AC00090002C7401F0A37400F0A37404F0900063
:100AD00001E0F9A3E0FAA3E090022FC9F0A3EAF045
:100AE000A3E9F090002CE0F9A3E0FAA3E090023231
:100AF000C9F0A3EAF0A3E9F07B017A00792F120B89
:0A0B00000A7B017A00792F020BD561
:0300430002051D96
:0D051D00C0E0C0F0C083C082C0D075D0081F
:10052A00E4FF90025DF0E59A20E003020621539A67
:10053A00FEAF9BEFB480099002D57401F002062B3E
:10054A009002D5E0FEB4010EEF6402600302062BAE
:10055A007402F002062BEEB4020E9002A1EFF090A4
:10056A0002D57403F002062B9002D5E064036003FF
:10057A000206219002A1E0FED39400400C74A22E40
:10058A00F582E43402F583EFF09002A1E014F0E082
:10059A0060030206219002D5F07F2A120CB37F086D
:1005AA0012001B7FAA12001B7F0112001B90025D22
:1005BA00740BF090025DE0FFD39405401774A22FEC
:1005CA00F582E43402F583E0FF12001B90025DE03D
:1005DA0014F080DF1200067F2A120CB37F08120083
:1005EA001B7FAA12001B7F0112001B90025D74057B
:1005FA00F090025DE0FFD39400401774A22FF582B9
:10060A00E43402F583E0FF12001B90025DE014F06F
:10061A0080DF7FAA12001BE59A30E105539AFDC2DA
:01062A0009C6
:0B062B00D0D0D082D083D0F0D0E032DD
:0C0006007F017E267DD6DDFEDEFADFF6EF
:0100120022CB
:100A55007468652074656C6570686F6E6520697370
:100A65002052696E67200D0A007468652074656CF4
:100A75006570686F6E65206973206F66666C696E58
:100A850065200D0A006E6F2074656C6570686F6E69
:100A950065200D0A007468652074656C6570686F63
:100AA5006E65206973206F6E6C696E65200D0A0096
:100944004202DB00004102D7024102DD004102DF26
:10095400024102DE004102D6004102D8004102D920
:05096400004102DA0071
:0F0D8600759D03E4F5BD75BC807F02FE020D1064
:100D7200EF4488F5BC00000000E5BC30E4FB53BC46
:040D8200EFAFBD22F0
:100D1000EF1FAA0670011E4A60107C137D88ED1D2E
:0A0D2000AA0470011C4A60E880F488
:010D2A0022A6
:05098500900001EFF0FD
:10098A00E4F9FEFDFC900001E0FF120D72EFC39442
:10099A000550047D01800DEDB40109EFD394324076
:1009AA00030CE4FDECC3940240089002D87401F0F1
:1009BA008005E49002D8F0EFFB9002DCE02BF09087
:1009CA0002DBE03400F00EEEB410BA9002DBE0C4B1
:1009DA00F854F0C8A3E0C4540F48F9E49002DBF0DD
:0409EA00A3F0AF01C6
:0109EE0022E6
:1003B300E4FF1209859002DDE0FED394C84005EF07
:1003C3009428400BEEC394285010EF94C8400B9030
:1003D30002DE7401F0E49002DAF030C168EFD394E6
:1003E300C840109002DDE0D394B440079002D77464
:1003F300018046EFC394035023E49002DAF09002A5
:10040300DFE0FE6401600DEE640360089002D774C0
:1004130002F080269002DE7401F0801EEFD3941464
:10042300401EEF942850199002DDE094054011908E
:1004330002D77403F0E49002DAF09002D9E004F0FA
:100443009002DDEFF0E420C10B9002DAF09002DEBF
:1004530004F080089002DEF09002D6F09002DEE015
:10046300FFB401229002D6E06F60127BFF7A0A7913
:1004730055120AB57B047D017FA1120C3A9002DE6E
:10048300E09002D6F02220C1030205149002DFE0BF
:10049300FF9002D7E0FBB507096402703AEF6402EC
:1004A30070357D017FA1120C3A9002D7E0B40108A8
:1004B3007BFF7A0A796E801C9002D7E0B402087B36
:1004C300FF7A0A798A800D9002D7E0B403097BFF93
:1004D3007A0A799A120AB59002D7E0FB6401703167
:1004E3009002DFE0640170299002DEE0FF7022EFEA
:1004F300701F9002DAE0D3940250167D017FA1129F
:100503000C3A7BFF7A0A796E120AB59002DAE0049C
:09051300F09002D7E09002DFF045
:01051C0022BC
:03000300020636BC
:10063600C0E0C0F0C083C082C0D075D000C000C08A
:1006460001C002C003C004C005C006C0077F221255
:100656000CB3120CD490025FEFF0D2B224F660799C
:10066600240870757F28120CB3120CD490025EEF2A
:10067600F0900260E4F090025EE0FF900260E0C35A
:100686009F501A120CD4900260E02461F582E43483
:1006960002F583EFF0900260E004F080D97F2A1221
:1006A6000CB390025EE0FF12001B900260E4F09033
:1006B600025EE0FF900260E0FEC39F501774612E59
:1006C600F582E43402F583E0FF12001B900260E03D
:1006D60004F080DB120D9580007F23120CB3D00747
:1006E600D006D005D004D003D002D001D000D0D09F
:0906F600D082D083D0F0D0E032B4
:1009EF0043BB10120D957F06120CB37F5512001BDF
:1009FF0090000174AAF0120CD4900001E06F601CFB
:100A0F007450F07F05120CB3120CD4900001E01457
:100A1F00F0E070EFE4FF120CB3120D957F15120C7E
:100A2F00B37F0212001B9000017464F0120CD4EF1C
:100A3F0064516009900001E014F0E070EFC288C2C9
:050A4F0089D2A8D2AF1E
:010A5400227F
:100CB300E4F5957596FFC2C3D2B6D2B7D2C4D2C3F8
:100CC300D2B7C2B6C2C48FA0D2B6D2B7C2C3D2C43F
:010CD30022FE
:0500160012001B7F55E4
:10001B00E4F5957596FFC2C3D2B6D2B7D2C48FA002
:0F002B00D2B7C2B6C2C4D2B6D2B7C2C3D2C422F1
:100CD4007595FFE4F596C2C3D2B6D2B7D2C4D2B6E4
:0E0CE400C2B7C2C4AFA0D2B6D2B7C2C3D2C488
:010CF20022DF
:100C8D00AE077F2A120CB37F071200167F021200E7
:100C9D0016AF0612001BAF0512001BEE2FFF120040
:060CAD001B7F1602001B74
:100C3A00AE077F2A120CB37F081200167F03120038
:100C4A0016AF0612001BAF0512001BAF0312001BE2
:0C0C5A00EE2D2BFF12001B7F1602001B6A
:0C0D95007F7B7E747D09DDFEDEFADFF658
:010DA100222F
:100969004202E500004202E200004102E0004202C8
:0B097900E700004102E1004102E40041
:03004B00020B5451
:100B5400C0E0C083C082C0D075D00875CDC09002FB
:100B6400E0E0FD700DAFCFEFFE9002E2E04EF0A3A7
:100B7400E0F0EDB40113AFCF9002E2E0F0A3E04F58
:100B8400F075CF559002E0E4F0D0D0D082D083D07D
:020B9400E0324D
:100D5B00758922438E80438E40758CF5758DFC43CF
:070D6B008F03D2AFD28E22EC
:100C080075D902E4F5D8F5E9F5F975DA499002E500
:100C18007404F0A3E4F09002E5E0FEA3E0F5EAEE48
:100C2800F5FAE02400F09002E5E03404F0D2AFD207
:020C3800DE22BA
:03003B00020B961F
:100B9600C0E0C083C082C0D075D008C2D89002E53C
:100BA600E0FEA3E0F5EAEEF5FAE02400F09002E5B7
:100BB600E03404F0B2B49002E07401F09002E2E492
:0F0BC600F0A3F075CF55D0D0D082D083D0E032DD
:0A0DBC00E4F5CF75CDC075CE5D22C1
:0D0DA200120D5B120C08120DBC43AF0222B3
:0D0DAF00D28AC28BD2AA75930FE4F594226C
:030013000206FFE3
:1006FF00C0E0C0F0C083C082C0D075D000C000C0C1
:0D070F0001C002C003C004C005C006C00741
:10071C00E4FEAF80EF540FFFEE7077EFB410005093
:10072C0071900734F828287302079A0207660207AB
:10073C006A02076E02077202077602077A02077EC8
:10074C0002078202078602078A02078E02079202BC
:10075C00079A02079A02079A80307B0180367B0247
:10076C0080327B03802E7B04802A7B0580267B06CF
:10077C0080227B07801E7B08801A7B0980167B0AEF
:10078C0080127B0B800E7B0C800AE4FB8006E4FB62
:0B079C008002E4FB7D017FA2120C3AFA
:1007A700D007D006D005D004D003D002D001D000A6
:0B07B700D0D0D082D083D0F0D0E03250
:10088200020D2BE493A3F8E493A34003F68001F254
:1008920008DFF48029E493A3F85407240CC8C33377
:1008A200C4540F4420C8834004F456800146F6DF46
:1008B200E4800B0102040810204080900902E47ECB
:1008C200019360BCA3FF543F30E509541FFEE4933B
:1008D200A360010ECF54C025E060A840B8E493A302
:1008E200FAE493A3F8E493A3C8C582C8CAC583CA2D
:1008F200F0A3C8C582C8CAC583CADFE9DEE780BEE5
:010984000072
:1007C200BB010689828A83E0225002E722BBFE0235
:0907D200E32289828A83E4932268
:1007DB00A3F8E0C5F025F0F0E582158270021583D1
:0607EB00E0C838F0E8222E
:100B0A0090022FE0FFA3E0FEA3E0CF900238F0A30B
:100B1A00EEF0A3EFF0900232E0CBF0A3E0CAF0A32C
:100B2A00E0C9F07F2290023BAD82AC831207C28DEE
:100B3A00828C83F0A309E970010ADFEC900232E0AB
:0A0B4A00FBA3E0FAA3E0F90200B3F8
:10004E00E5102438F582E43402F583E005102290A1
:10005E000235300703900238E475F00112083002C1
:10006E0007C22000E97F2ED2008018EF540F249093
:10007E00D43440D4FF30040BEF24BFB41A00500325
:10008E002461FFE511600215110514E514700205D7
:10009E001330070E900235E475F001120830EF02AE
:1000AE00081E020C667403D2078003E4C207F51023
:1000BE00900235120847E4F511F513F514E51160B9
:1000CE00077F2012009180F57512FFC201C200C297
:1000DE0002C203C205C206C20812005DFF700D30D7
:1000EE0007057F001200A2AF14AE1322B4255FC223
:1000FE00D5C20412005DFF24D0B40A00501A75F068
:10010E000A781130D50508B6FF0106C6A426F620DA
:10011E00D5047002D20380D924CFB41A00EF500454
:10012E00C2E5D2040202A3D20180C6D20080C0D2A0
:10013E000280BCD2D580BAD20580B47F2012009145
:10014E002002077401B5110040F112004EFF12009B
:10015E00910200CBD208D206809512004EFB1200FF
:10016E004EFA12004EF94A4B700679747A037BFFF1
:10017E0020022EE511602A7E008E82758300120702
:10018E00F160060EEE651270F0C2D5EBC0E0EAC06B
:10019E00E0E9C0E0EE1202EAD0E0F9D0E0FAD0E0F9
:1001AE00FB1207C2FF60AAEBC0E0EAC0E0E9C0E0C4
:1001BE00120091D0E02401F9D0E03400FAD0E0FB37
:1001CE00E5120460DCD512D980877BFF7A0279E6CE
:1001DE00D202809C791080027908C206C20880087B
:1001EE00D2D5790A8004790AC2D5E512047002F5D7
:1001FE0012E4FAFDFEFF12004EFC7B0820011312E2
:10020E00004EFD7B1030000A12004EFE12004EFF13
:10021E007B20EC3382D592D55013C3E43000069F79
:10022E00FFE49EFEE42001039DFDE49CFCE4CBF87C
:10023E00C201EC700CCFCECDCCE824F8F870F38070
:10024E0017C3EF33FFEE33FEED33FDEC33FCEB3330
:10025E00FB994002FB0FD8E9EB300105F8D0E0C462
:10026E0048B201C0E00AEC4D4E4F78207B0070C2C0
:10027E00EAB5120040BCC0E01202ECD0F0D0E02093
:10028E000104C4C0E0C4B201C0F012007AD0F0D5AF
:10029E00F0EB0200CB12085001685301E25801390D
:1002AE004C01354201E64F01EE4401EE49014E4349
:0802BE0001F45501D84601D8F6
:1002C6004501D847039450013D2D01412E01642B71
:1002D600014523016220037D2A00FD480000015CE0
:1002E6003F3F3F00790AA2D5200314300509B91013
:1002F600020404B9080104A2D52006025001042014
:1003060002689202B511005034C0E07F2030031914
:100316007F30A20272067205500F120343C202C258
:1003260006C205C2087F30800F300503E9C0E0121F
:100336000091300503D0E0F9D0E0B511CC300517B7
:100346007F30B9100C1200917F583004077F7880F7
:1003560003B908031200913002057F2D0200917F38
:10036600202008F87F2B2006F322920280CF286EE9
:10037600756C6C2900D20112004E3001F8C201786A
:100386001130D50108F60200FD2D504349581200E0
:100396004E2403B405004001E490038F93120082BB
:0D03A600743A120082D2037511040201E2C4
:1007F100BB010CE58229F582E5833AF583E02250BD
:1008010006E92582F8E622BBFE06E92582F8E22206
:0D081100E58229F582E5833AF583E4932220
:10081E00BB010689828A83F0225002F722BBFE01B9
:02082E00F322B3
:10083000F8E0FBA3A3E0F925F0F0E5821582700251
:070840001583E0FA38F022F5
:09084700EBF0A3EAF0A3E9F022B2
:10085000D083D082F8E4937012740193700DA3A337
:1008600093F8740193F5828883E47374029368604B
:06087000EFA3A3A380DF4B
:100C6600EFB40A07740D120C71740A309811A89922
:100C7600B8130CC2983098FDA899C298B811F630EE
:070C860099FDC299F59922C6
:00000001FF
