:030000000205F303
:0C05F300787FE4F6D8FD75812102063AFD
:100A0700E4900000F012099B120A3112067F1200CF
:060A17003E120A4080FEC1
:1009B9005354433132433541363053320D0A556170
:0C09C9007274205465737420210D0A0024
:10099B00759850758E40758920758B96758D96D28E
:0E09AB008ED2ACD2AF7BFF7A0979B902074435
:03002300020006D2
:0D000600309802C298309904C299C20932A4
:090A57002009FDEFD209F59922F6
:1008590090022FEBF0A3EAF0A3E9F090022FE0FB5E
:10086900A3E0FAA3E0F912053F601790022FA3E471
:1008790075F001120558A9F0FA12053FFF120A573F
:0308890080D922F1
:0B074400900001EBF0A3EAF0A3E9F045
:10074F0090002C7401F0A37400F0A37404F09000D7
:10075F0001E0F9A3E0FAA3E090022FC9F0A3EAF0B9
:10076F00A3E9F090002CE0F9A3E0FAA3E0900232A5
:10077F00C9F0A3EAF0A3E9F07B017A00792F120701
:0A078F00997B017A00792F020859C6
:050A1D004202A50000EB
:0F0A3100759D03E4F5BD75BC807F02FE0209D5FB
:10002600EF4488F5BC00000000E5BC30E4FB53BC9F
:04003600EFAFBD2249
:1009D500EF1FAA0670011E4A60107C137D88ED1D6D
:0A09E500AA0470011C4A60E880F4C7
:0109EF0022E5
:02082000AE0721
:10082200E4FDFCAF06120026EFFB9002A6E02BF0DF
:100832009002A5E03400F00CECB408E79002A5E0C9
:10084200FEA3E07803CEC313CE13D8F9FDE49002E1
:06085200A5F0A3F0AF05C4
:01085800227D
:030003000203B342
:1003B300C0E0C0F0C083C082C0D075D000C000C010
:1003C30001C002C003C004C005C006C0077F2212DB
:1003D300095B12097C90025EEFF0D2B224F66079D9
:1003E300240870757F2812095B12097C90025DEF67
:1003F300F090025FE4F090025DE0FF90025FE0C3E3
:100403009F501A12097C90025FE02460F582E43465
:1004130002F583EFF090025FE004F080D97F2A12A7
:10042300095B90025DE0FF12093C90025FE4F090EB
:10043300025DE0FF90025FE0FEC39F501774602EE1
:10044300F582E43402F583E0FF12093C90025FE099
:1004530004F080DB12001680007F2312095BD007B3
:10046300D006D005D004D003D002D001D000D0D024
:09047300D082D083D0F0D0E03239
:10067F0043BB101200167F0612095B7F5512093C0F
:10068F0090000174AAF012097C900001E06F601CC9
:10069F007450F07F0512095B12097C900001E01481
:1006AF00F0E070EFE4FF12095B1200167F151209DC
:1006BF005B7F0212093C9000017464F012097CEF19
:1006CF0064516009900001E014F0E070EFC288C23D
:0506DF0089D2A8D2AF92
:0106E40022F3
:10095B00E4F5957596FFC2C3D2B6D2B7D2C4D2C353
:10096B00D2B7C2B6C2C48FA0D2B6D2B7C2C3D2C49A
:01097B002259
:0509370012093C7F5590
:10093C00E4F5957596FFC2C3D2B6D2B7D2C48FA0D8
:0F094C00D2B7C2B6C2C4D2B6D2B7C2C3D2C422C7
:10097C007595FFE4F596C2C3D2B6D2B7D2C4D2B63F
:0E098C00C2B7C2C4AFA0D2B6D2B7C2C3D2C4E3
:01099A00223A
:10091100AE077F2A12095B7F071209377F0212098E
:1009210037AF0612093CAF0512093CEE2FFF120941
:060931003C7F1602093CA8
:1008BE00AE077F2A12095B7F081209377F031209E0
:1008CE0037AF0612093CAF0512093CAF0312093CC3
:0C08DE00EE2D2BFF12093C7F1602093C96
:0C0016007F7B7E747D09DDFEDEFADFF6E4
:0100220022BB
:0E0A22004202A300004202A100004102A00017
:03004B000206E5C5
:1006E500C0E0C0F0C083C082C0D075D00875CDC051
:1006F5009002A0E07026AFCFEFFEA3E04EF0A3E09E
:10070500F07F2B12095B7F0212093C9002A1E0FFEA
:1007150012093C9002A1A3E0FF12093C9002A0E05F
:10072500B40111AFCFA3E0F0A3E04FF075CF559022
:0F07350002A0E4F0D0D0D082D083D0F0D0E03258
:1009F000758922438E80438E40758CF5758DFC433E
:070A00008F03D2AFD28E225A
:10088C0075D902E4F5D8F5E9F5F975DA4D9002A3BE
:10089C007404F0A3E4F09002A3E0FEA3E0F5EAEE0A
:1008AC00F5FAE02400F09002A3E03404F0D2AFD2C9
:0208BC00DE223A
:03003B000207E3D6
:1007E300C0E0C083C082C0D075D008C2D89002A335
:1007F300E0FEA3E0F5EAEEF5FAE02400F09002A3B0
:10080300E03404F0B2B49002A07401F0A3E4F0A3C6
:0D081300F075CF55D0D0D082D083D0E03228
:0A0A4D00E4F5CF75CDC075CE5D2233
:0D003E001209F012088C120A4D43AF022285
:0D0A4000D28AC28BD2AA75930FE4F59422DE
:0300130002047C68
:10047C00C0E0C0F0C083C082C0D075D000C000C046
:0D048C0001C002C003C004C005C006C007C7
:10049900E4FEAF80EF540FFFEE7077EFB410005019
:1004A900719004B1F82828730205170204E30204C5
:1004B900E70204EB0204EF0204F30204F70204FB6F
:1004C9000204FF02050302050702050B02050F02DC
:1004D900051702051702051780307B0180367B025C
:1004E90080327B03802E7B04802A7B0580267B0655
:1004F90080227B07801E7B08801A7B0980167B0A75
:1005090080127B0B800E7B0C800AE4FB8006E4FBE7
:0B0519008002E4FB7D017FA21208BEFF
:10052400D007D006D005D004D003D002D001D0002B
:0B053400D0D0D082D083D0F0D0E032D5
:1005FF00020A07E493A3F8E493A34003F68001F201
:10060F0008DFF48029E493A3F85407240CC8C333FC
:10061F00C4540F4420C8834004F456800146F6DFCB
:10062F00E4800B0102040810204080900A1DE47E34
:10063F00019360BCA3FF543F30E509541FFEE493C0
:10064F00A360010ECF54C025E060A840B8E493A387
:10065F00FAE493A3F8E493A3C8C582C8CAC583CAB2
:10066F00F0A3C8C582C8CAC583CADFE9DEE780BE6A
:010A300000C5
:10053F00BB010689828A83E0225002E722BBFE02BA
:09054F00E32289828A83E49322ED
:10055800A3F8E0C5F025F0F0E58215827002158356
:06056800E0C838F0E822B3
:1007990090022FE0FFA3E0FEA3E0CF900238F0A380
:1007A900EEF0A3EFF0900232E0CBF0A3E0CAF0A3A1
:1007B900E0C9F07F2290023BAD82AC8312053F8DE8
:1007C900828C83F0A309E970010ADFEC900232E020
:0A07D900FBA3E0FAA3E0F90200B36D
:10004E00E5102438F582E43402F583E005102290A1
:10005E000235300703900238E475F0011205AD0247
:10006E00053F2000E97F2ED2008018EF540F249018
:10007E00D43440D4FF30040BEF24BFB41A00500325
:10008E002461FFE511600215110514E514700205D7
:10009E001330070E900235E475F0011205ADEF0234
:1000AE00059B0208EA7403D2078003E4C207F51029
:1000BE009002351205C4E4F511F513F514E511603F
:1000CE00077F2012009180F57512FFC201C200C297
:1000DE0002C203C205C206C20812005DFF700D30D7
:1000EE0007057F001200A2AF14AE1322B4255FC223
:1000FE00D5C20412005DFF24D0B40A00501A75F068
:10010E000A781130D50508B6FF0106C6A426F620DA
:10011E00D5047002D20380D924CFB41A00EF500454
:10012E00C2E5D2040202A3D20180C6D20080C0D2A0
:10013E000280BCD2D580BAD20580B47F2012009145
:10014E002002077401B5110040F112004EFF12009B
:10015E00910200CBD208D206809512004EFB1200FF
:10016E004EFA12004EF94A4B700679747A037BFFF1
:10017E0020022EE511602A7E008E82758300120504
:10018E006E60060EEE651270F0C2D5EBC0E0EAC0EE
:10019E00E0E9C0E0EE1202EAD0E0F9D0E0FAD0E0F9
:1001AE00FB12053FFF60AAEBC0E0EAC0E0E9C0E049
:1001BE00120091D0E02401F9D0E03400FAD0E0FB37
:1001CE00E5120460DCD512D980877BFF7A0279E6CE
:1001DE00D202809C791080027908C206C20880087B
:1001EE00D2D5790A8004790AC2D5E512047002F5D7
:1001FE0012E4FAFDFEFF12004EFC7B0820011312E2
:10020E00004EFD7B1030000A12004EFE12004EFF13
:10021E007B20EC3382D592D55013C3E43000069F79
:10022E00FFE49EFEE42001039DFDE49CFCE4CBF87C
:10023E00C201EC700CCFCECDCCE824F8F870F38070
:10024E0017C3EF33FFEE33FEED33FDEC33FCEB3330
:10025E00FB994002FB0FD8E9EB300105F8D0E0C462
:10026E0048B201C0E00AEC4D4E4F78207B0070C2C0
:10027E00EAB5120040BCC0E01202ECD0F0D0E02093
:10028E000104C4C0E0C4B201C0F012007AD0F0D5AF
:10029E00F0EB0200CB1205CD01685301E258013993
:1002AE004C01354201E64F01EE4401EE49014E4349
:0802BE0001F45501D84601D8F6
:1002C6004501D847039450013D2D01412E01642B71
:1002D600014523016220037D2A00FD480000015CE0
:1002E6003F3F3F00790AA2D5200314300509B91013
:1002F600020404B9080104A2D52006025001042014
:1003060002689202B511005034C0E07F2030031914
:100316007F30A20272067205500F120343C202C258
:1003260006C205C2087F30800F300503E9C0E0121F
:100336000091300503D0E0F9D0E0B511CC300517B7
:100346007F30B9100C1200917F583004077F7880F7
:1003560003B908031200913002057F2D0200917F38
:10036600202008F87F2B2006F322920280CF286EE9
:10037600756C6C2900D20112004E3001F8C201786A
:100386001130D50108F60200FD2D504349581200E0
:100396004E2403B405004001E490038F93120082BB
:0D03A600743A120082D2037511040201E2C4
:10056E00BB010CE58229F582E5833AF583E0225042
:10057E0006E92582F8E622BBFE06E92582F8E2228C
:0D058E00E58229F582E5833AF583E49322A6
:10059B00BB010689828A83F0225002F722BBFE013F
:0205AB00F32239
:1005AD00F8E0FBA3A3E0F925F0F0E58215827002D7
:0705BD001583E0FA38F0227B
:0905C400EBF0A3EAF0A3E9F02238
:1005CD00D083D082F8E4937012740193700DA3A3BD
:1005DD0093F8740193F5828883E4737402936860D1
:0605ED00EFA3A3A380DFD1
:1008EA00EFB40A07740D1208F5740A309811A89922
:1008FA00B8130CC2983098FDA899C298B811F6306E
:07090A0099FDC299F5992245
:00000001FF
